{
  "_format": "hh-sol-artifact-1",
  "contractName": "MyEpicNFT",
  "sourceName": "contracts/MyNFT.sol",
  "abi": [
    {
      "inputs": [],
      "stateMutability": "nonpayable",
      "type": "constructor"
    },
    {
      "anonymous": false,
      "inputs": [
        {
          "indexed": true,
          "internalType": "address",
          "name": "owner",
          "type": "address"
        },
        {
          "indexed": true,
          "internalType": "address",
          "name": "approved",
          "type": "address"
        },
        {
          "indexed": true,
          "internalType": "uint256",
          "name": "tokenId",
          "type": "uint256"
        }
      ],
      "name": "Approval",
      "type": "event"
    },
    {
      "anonymous": false,
      "inputs": [
        {
          "indexed": true,
          "internalType": "address",
          "name": "owner",
          "type": "address"
        },
        {
          "indexed": true,
          "internalType": "address",
          "name": "operator",
          "type": "address"
        },
        {
          "indexed": false,
          "internalType": "bool",
          "name": "approved",
          "type": "bool"
        }
      ],
      "name": "ApprovalForAll",
      "type": "event"
    },
    {
      "anonymous": false,
      "inputs": [
        {
          "indexed": false,
          "internalType": "address",
          "name": "sender",
          "type": "address"
        },
        {
          "indexed": false,
          "internalType": "uint256",
          "name": "tokenId",
          "type": "uint256"
        }
      ],
      "name": "NewEpicNFTMinted",
      "type": "event"
    },
    {
      "anonymous": false,
      "inputs": [
        {
          "indexed": true,
          "internalType": "address",
          "name": "from",
          "type": "address"
        },
        {
          "indexed": true,
          "internalType": "address",
          "name": "to",
          "type": "address"
        },
        {
          "indexed": true,
          "internalType": "uint256",
          "name": "tokenId",
          "type": "uint256"
        }
      ],
      "name": "Transfer",
      "type": "event"
    },
    {
      "inputs": [
        {
          "internalType": "address",
          "name": "to",
          "type": "address"
        },
        {
          "internalType": "uint256",
          "name": "tokenId",
          "type": "uint256"
        }
      ],
      "name": "approve",
      "outputs": [],
      "stateMutability": "nonpayable",
      "type": "function"
    },
    {
      "inputs": [
        {
          "internalType": "address",
          "name": "owner",
          "type": "address"
        }
      ],
      "name": "balanceOf",
      "outputs": [
        {
          "internalType": "uint256",
          "name": "",
          "type": "uint256"
        }
      ],
      "stateMutability": "view",
      "type": "function"
    },
    {
      "inputs": [
        {
          "internalType": "uint256",
          "name": "tokenId",
          "type": "uint256"
        }
      ],
      "name": "getApproved",
      "outputs": [
        {
          "internalType": "address",
          "name": "",
          "type": "address"
        }
      ],
      "stateMutability": "view",
      "type": "function"
    },
    {
      "inputs": [
        {
          "internalType": "address",
          "name": "owner",
          "type": "address"
        },
        {
          "internalType": "address",
          "name": "operator",
          "type": "address"
        }
      ],
      "name": "isApprovedForAll",
      "outputs": [
        {
          "internalType": "bool",
          "name": "",
          "type": "bool"
        }
      ],
      "stateMutability": "view",
      "type": "function"
    },
    {
      "inputs": [
        {
          "internalType": "uint256",
          "name": "index",
          "type": "uint256"
        }
      ],
      "name": "makeAnEpicNFT",
      "outputs": [],
      "stateMutability": "nonpayable",
      "type": "function"
    },
    {
      "inputs": [],
      "name": "name",
      "outputs": [
        {
          "internalType": "string",
          "name": "",
          "type": "string"
        }
      ],
      "stateMutability": "view",
      "type": "function"
    },
    {
      "inputs": [
        {
          "internalType": "uint256",
          "name": "tokenId",
          "type": "uint256"
        }
      ],
      "name": "ownerOf",
      "outputs": [
        {
          "internalType": "address",
          "name": "",
          "type": "address"
        }
      ],
      "stateMutability": "view",
      "type": "function"
    },
    {
      "inputs": [
        {
          "internalType": "address",
          "name": "from",
          "type": "address"
        },
        {
          "internalType": "address",
          "name": "to",
          "type": "address"
        },
        {
          "internalType": "uint256",
          "name": "tokenId",
          "type": "uint256"
        }
      ],
      "name": "safeTransferFrom",
      "outputs": [],
      "stateMutability": "nonpayable",
      "type": "function"
    },
    {
      "inputs": [
        {
          "internalType": "address",
          "name": "from",
          "type": "address"
        },
        {
          "internalType": "address",
          "name": "to",
          "type": "address"
        },
        {
          "internalType": "uint256",
          "name": "tokenId",
          "type": "uint256"
        },
        {
          "internalType": "bytes",
          "name": "_data",
          "type": "bytes"
        }
      ],
      "name": "safeTransferFrom",
      "outputs": [],
      "stateMutability": "nonpayable",
      "type": "function"
    },
    {
      "inputs": [
        {
          "internalType": "address",
          "name": "operator",
          "type": "address"
        },
        {
          "internalType": "bool",
          "name": "approved",
          "type": "bool"
        }
      ],
      "name": "setApprovalForAll",
      "outputs": [],
      "stateMutability": "nonpayable",
      "type": "function"
    },
    {
      "inputs": [
        {
          "internalType": "bytes4",
          "name": "interfaceId",
          "type": "bytes4"
        }
      ],
      "name": "supportsInterface",
      "outputs": [
        {
          "internalType": "bool",
          "name": "",
          "type": "bool"
        }
      ],
      "stateMutability": "view",
      "type": "function"
    },
    {
      "inputs": [],
      "name": "symbol",
      "outputs": [
        {
          "internalType": "string",
          "name": "",
          "type": "string"
        }
      ],
      "stateMutability": "view",
      "type": "function"
    },
    {
      "inputs": [
        {
          "internalType": "uint256",
          "name": "tokenId",
          "type": "uint256"
        }
      ],
      "name": "tokenURI",
      "outputs": [
        {
          "internalType": "string",
          "name": "",
          "type": "string"
        }
      ],
      "stateMutability": "view",
      "type": "function"
    },
    {
      "inputs": [
        {
          "internalType": "address",
          "name": "from",
          "type": "address"
        },
        {
          "internalType": "address",
          "name": "to",
          "type": "address"
        },
        {
          "internalType": "uint256",
          "name": "tokenId",
          "type": "uint256"
        }
      ],
      "name": "transferFrom",
      "outputs": [],
      "stateMutability": "nonpayable",
      "type": "function"
    }
  ],
  "bytecode": "0x608060405260405180610160016040528061012f815260200162003a3761012f913960089080519060200190620000389291906200035a565b506040518060400160405280600581526020017f4920616d2000000000000000000000000000000000000000000000000000000081525060099080519060200190620000869291906200035a565b5060405180608001604052806040518060400160405280600781526020017f49726f6e6d616e0000000000000000000000000000000000000000000000000081525081526020016040518060400160405280600481526020017f54686f720000000000000000000000000000000000000000000000000000000081525081526020016040518060400160405280600981526020017f5370696465726d616e000000000000000000000000000000000000000000000081525081526020016040518060400160405280600f81526020017f4361707461696e2d416d65726963610000000000000000000000000000000000815250815250600a9060046200018e929190620003eb565b503480156200019c57600080fd5b506040518060400160405280600981526020017f5371756172654e465400000000000000000000000000000000000000000000008152506040518060400160405280600681526020017f53515541524500000000000000000000000000000000000000000000000000008152508160009080519060200190620002219291906200035a565b5080600190805190602001906200023a9291906200035a565b505050620002886040518060400160405280601e81526020017f54686973206973206d79204e465420636f6e74726163742e20576f61682100008152506200028e60201b62000cb61760201c565b6200060c565b6200032e81604051602401620002a5919062000520565b6040516020818303038152906040527f41304fac000000000000000000000000000000000000000000000000000000007bffffffffffffffffffffffffffffffffffffffffffffffffffffffff19166020820180517bffffffffffffffffffffffffffffffffffffffffffffffffffffffff83818316178352505050506200033160201b60201c565b50565b60008151905060006a636f6e736f6c652e6c6f679050602083016000808483855afa5050505050565b828054620003689062000596565b90600052602060002090601f0160209004810192826200038c5760008555620003d8565b82601f10620003a757805160ff1916838001178555620003d8565b82800160010185558215620003d8579182015b82811115620003d7578251825591602001919060010190620003ba565b5b509050620003e7919062000452565b5090565b8280548282559060005260206000209081019282156200043f579160200282015b828111156200043e5782518290805190602001906200042d9291906200035a565b50916020019190600101906200040c565b5b5090506200044e919062000471565b5090565b5b808211156200046d57600081600090555060010162000453565b5090565b5b808211156200049557600081816200048b919062000499565b5060010162000472565b5090565b508054620004a79062000596565b6000825580601f10620004bb5750620004dc565b601f016020900490600052602060002090810190620004db919062000452565b5b50565b6000620004ec8262000544565b620004f881856200054f565b93506200050a81856020860162000560565b6200051581620005fb565b840191505092915050565b600060208201905081810360008301526200053c8184620004df565b905092915050565b600081519050919050565b600082825260208201905092915050565b60005b838110156200058057808201518184015260208101905062000563565b8381111562000590576000848401525b50505050565b60006002820490506001821680620005af57607f821691505b60208210811415620005c657620005c5620005cc565b5b50919050565b7f4e487b7100000000000000000000000000000000000000000000000000000000600052602260045260246000fd5b6000601f19601f8301169050919050565b61341b806200061c6000396000f3fe608060405234801561001057600080fd5b50600436106100ea5760003560e01c806370a082311161008c578063b88d4fde11610066578063b88d4fde1461025b578063bc024e6c14610277578063c87b56dd14610293578063e985e9c5146102c3576100ea565b806370a08231146101f157806395d89b4114610221578063a22cb4651461023f576100ea565b8063095ea7b3116100c8578063095ea7b31461016d57806323b872dd1461018957806342842e0e146101a55780636352211e146101c1576100ea565b806301ffc9a7146100ef57806306fdde031461011f578063081812fc1461013d575b600080fd5b610109600480360381019061010491906120af565b6102f3565b60405161011691906126d3565b60405180910390f35b6101276103d5565b60405161013491906126ee565b60405180910390f35b61015760048036038101906101529190612101565b610467565b6040516101649190612643565b60405180910390f35b61018760048036038101906101829190612073565b6104ec565b005b6101a3600480360381019061019e9190611f6d565b610604565b005b6101bf60048036038101906101ba9190611f6d565b610664565b005b6101db60048036038101906101d69190612101565b610684565b6040516101e89190612643565b60405180910390f35b61020b60048036038101906102069190611f08565b610736565b604051610218919061294e565b60405180910390f35b6102296107ee565b60405161023691906126ee565b60405180910390f35b61025960048036038101906102549190612037565b610880565b005b61027560048036038101906102709190611fbc565b610896565b005b610291600480360381019061028c9190612101565b6108f8565b005b6102ad60048036038101906102a89190612101565b610ad0565b6040516102ba91906126ee565b60405180910390f35b6102dd60048036038101906102d89190611f31565b610c22565b6040516102ea91906126d3565b60405180910390f35b60007f80ac58cd000000000000000000000000000000000000000000000000000000007bffffffffffffffffffffffffffffffffffffffffffffffffffffffff1916827bffffffffffffffffffffffffffffffffffffffffffffffffffffffff191614806103be57507f5b5e139f000000000000000000000000000000000000000000000000000000007bffffffffffffffffffffffffffffffffffffffffffffffffffffffff1916827bffffffffffffffffffffffffffffffffffffffffffffffffffffffff1916145b806103ce57506103cd82610d4f565b5b9050919050565b6060600080546103e490612be2565b80601f016020809104026020016040519081016040528092919081815260200182805461041090612be2565b801561045d5780601f106104325761010080835404028352916020019161045d565b820191906000526020600020905b81548152906001019060200180831161044057829003601f168201915b5050505050905090565b600061047282610db9565b6104b1576040517f08c379a00000000000000000000000000000000000000000000000000000000081526004016104a8906128ce565b60405180910390fd5b6004600083815260200190815260200160002060009054906101000a900473ffffffffffffffffffffffffffffffffffffffff169050919050565b60006104f782610684565b90508073ffffffffffffffffffffffffffffffffffffffff168373ffffffffffffffffffffffffffffffffffffffff161415610568576040517f08c379a000000000000000000000000000000000000000000000000000000000815260040161055f9061290e565b60405180910390fd5b8073ffffffffffffffffffffffffffffffffffffffff16610587610e25565b73ffffffffffffffffffffffffffffffffffffffff1614806105b657506105b5816105b0610e25565b610c22565b5b6105f5576040517f08c379a00000000000000000000000000000000000000000000000000000000081526004016105ec9061280e565b60405180910390fd5b6105ff8383610e2d565b505050565b61061561060f610e25565b82610ee6565b610654576040517f08c379a000000000000000000000000000000000000000000000000000000000815260040161064b9061292e565b60405180910390fd5b61065f838383610fc4565b505050565b61067f83838360405180602001604052806000815250610896565b505050565b6000806002600084815260200190815260200160002060009054906101000a900473ffffffffffffffffffffffffffffffffffffffff169050600073ffffffffffffffffffffffffffffffffffffffff168173ffffffffffffffffffffffffffffffffffffffff16141561072d576040517f08c379a00000000000000000000000000000000000000000000000000000000081526004016107249061284e565b60405180910390fd5b80915050919050565b60008073ffffffffffffffffffffffffffffffffffffffff168273ffffffffffffffffffffffffffffffffffffffff1614156107a7576040517f08c379a000000000000000000000000000000000000000000000000000000000815260040161079e9061282e565b60405180910390fd5b600360008373ffffffffffffffffffffffffffffffffffffffff1673ffffffffffffffffffffffffffffffffffffffff168152602001908152602001600020549050919050565b6060600180546107fd90612be2565b80601f016020809104026020016040519081016040528092919081815260200182805461082990612be2565b80156108765780601f1061084b57610100808354040283529160200191610876565b820191906000526020600020905b81548152906001019060200180831161085957829003601f168201915b5050505050905090565b61089261088b610e25565b838361122b565b5050565b6108a76108a1610e25565b83610ee6565b6108e6576040517f08c379a00000000000000000000000000000000000000000000000000000000081526004016108dd9061292e565b60405180910390fd5b6108f284848484611398565b50505050565b600061090460076113f4565b90506109466040518060400160405280601c81526020017f4d696e74656420746f6b656e20257320666f72207573657220257321000000008152508233611402565b600060086009600a8581548110610986577f4e487b7100000000000000000000000000000000000000000000000000000000600052603260045260246000fd5b906000526020600020016040516020016109a2939291906125a0565b60405160208183030381529060405290506000610a4c6009600a86815481106109f4577f4e487b7100000000000000000000000000000000000000000000000000000000600052603260045260246000fd5b90600052602060002001604051602001610a0f92919061257c565b604051602081830303815290604052610a27846114a1565b604051602001610a389291906125dc565b6040516020818303038152906040526114a1565b9050600081604051602001610a619190612621565b6040516020818303038152906040529050610a7c338561165f565b610a86848261167d565b610a9060076116f1565b7febb98688741ffa4c7589bf325de30cf7becb63de567842e1ccdb6cb949fdc82c3385604051610ac19291906126aa565b60405180910390a15050505050565b6060610adb82610db9565b610b1a576040517f08c379a0000000000000000000000000000000000000000000000000000000008152600401610b11906128ae565b60405180910390fd5b6000600660008481526020019081526020016000208054610b3a90612be2565b80601f0160208091040260200160405190810160405280929190818152602001828054610b6690612be2565b8015610bb35780601f10610b8857610100808354040283529160200191610bb3565b820191906000526020600020905b815481529060010190602001808311610b9657829003601f168201915b505050505090506000610bc4611707565b9050600081511415610bda578192505050610c1d565b600082511115610c0f578082604051602001610bf7929190612558565b60405160208183030381529060405292505050610c1d565b610c188461171e565b925050505b919050565b6000600560008473ffffffffffffffffffffffffffffffffffffffff1673ffffffffffffffffffffffffffffffffffffffff16815260200190815260200160002060008373ffffffffffffffffffffffffffffffffffffffff1673ffffffffffffffffffffffffffffffffffffffff16815260200190815260200160002060009054906101000a900460ff16905092915050565b610d4c81604051602401610cca91906126ee565b6040516020818303038152906040527f41304fac000000000000000000000000000000000000000000000000000000007bffffffffffffffffffffffffffffffffffffffffffffffffffffffff19166020820180517bffffffffffffffffffffffffffffffffffffffffffffffffffffffff83818316178352505050506117c5565b50565b60007f01ffc9a7000000000000000000000000000000000000000000000000000000007bffffffffffffffffffffffffffffffffffffffffffffffffffffffff1916827bffffffffffffffffffffffffffffffffffffffffffffffffffffffff1916149050919050565b60008073ffffffffffffffffffffffffffffffffffffffff166002600084815260200190815260200160002060009054906101000a900473ffffffffffffffffffffffffffffffffffffffff1673ffffffffffffffffffffffffffffffffffffffff1614159050919050565b600033905090565b816004600083815260200190815260200160002060006101000a81548173ffffffffffffffffffffffffffffffffffffffff021916908373ffffffffffffffffffffffffffffffffffffffff160217905550808273ffffffffffffffffffffffffffffffffffffffff16610ea083610684565b73ffffffffffffffffffffffffffffffffffffffff167f8c5be1e5ebec7d5bd14f71427d1e84f3dd0314c0f7b2291e5b200ac8c7c3b92560405160405180910390a45050565b6000610ef182610db9565b610f30576040517f08c379a0000000000000000000000000000000000000000000000000000000008152600401610f27906127ee565b60405180910390fd5b6000610f3b83610684565b90508073ffffffffffffffffffffffffffffffffffffffff168473ffffffffffffffffffffffffffffffffffffffff161480610f7d5750610f7c8185610c22565b5b80610fbb57508373ffffffffffffffffffffffffffffffffffffffff16610fa384610467565b73ffffffffffffffffffffffffffffffffffffffff16145b91505092915050565b8273ffffffffffffffffffffffffffffffffffffffff16610fe482610684565b73ffffffffffffffffffffffffffffffffffffffff161461103a576040517f08c379a00000000000000000000000000000000000000000000000000000000081526004016110319061276e565b60405180910390fd5b600073ffffffffffffffffffffffffffffffffffffffff168273ffffffffffffffffffffffffffffffffffffffff1614156110aa576040517f08c379a00000000000000000000000000000000000000000000000000000000081526004016110a1906127ae565b60405180910390fd5b6110b58383836117ee565b6110c0600082610e2d565b6001600360008573ffffffffffffffffffffffffffffffffffffffff1673ffffffffffffffffffffffffffffffffffffffff16815260200190815260200160002060008282546111109190612af8565b925050819055506001600360008473ffffffffffffffffffffffffffffffffffffffff1673ffffffffffffffffffffffffffffffffffffffff16815260200190815260200160002060008282546111679190612a17565b92505081905550816002600083815260200190815260200160002060006101000a81548173ffffffffffffffffffffffffffffffffffffffff021916908373ffffffffffffffffffffffffffffffffffffffff160217905550808273ffffffffffffffffffffffffffffffffffffffff168473ffffffffffffffffffffffffffffffffffffffff167fddf252ad1be2c89b69c2b068fc378daa952ba7f163c4a11628f55a4df523b3ef60405160405180910390a46112268383836117f3565b505050565b8173ffffffffffffffffffffffffffffffffffffffff168373ffffffffffffffffffffffffffffffffffffffff16141561129a576040517f08c379a0000000000000000000000000000000000000000000000000000000008152600401611291906127ce565b60405180910390fd5b80600560008573ffffffffffffffffffffffffffffffffffffffff1673ffffffffffffffffffffffffffffffffffffffff16815260200190815260200160002060008473ffffffffffffffffffffffffffffffffffffffff1673ffffffffffffffffffffffffffffffffffffffff16815260200190815260200160002060006101000a81548160ff0219169083151502179055508173ffffffffffffffffffffffffffffffffffffffff168373ffffffffffffffffffffffffffffffffffffffff167f17307eab39ab6107e8899845ad3d59bd9653f200f220920489ca2b5937696c318360405161138b91906126d3565b60405180910390a3505050565b6113a3848484610fc4565b6113af848484846117f8565b6113ee576040517f08c379a00000000000000000000000000000000000000000000000000000000081526004016113e59061274e565b60405180910390fd5b50505050565b600081600001549050919050565b61149c83838360405160240161141a93929190612710565b6040516020818303038152906040527fe3849f79000000000000000000000000000000000000000000000000000000007bffffffffffffffffffffffffffffffffffffffffffffffffffffffff19166020820180517bffffffffffffffffffffffffffffffffffffffffffffffffffffffff83818316178352505050506117c5565b505050565b606060008251905060008114156114ca576040518060200160405280600081525091505061165a565b600060036002836114db9190612a17565b6114e59190612a6d565b60046114f19190612a9e565b905060006020826115029190612a17565b67ffffffffffffffff811115611541577f4e487b7100000000000000000000000000000000000000000000000000000000600052604160045260246000fd5b6040519080825280601f01601f1916602001820160405280156115735781602001600182028036833780820191505090505b50905060006040518060600160405280604081526020016133a6604091399050600181016020830160005b868110156116175760038101905062ffffff818a015116603f8160121c168401518060081b905060ff603f83600c1c1686015116810190508060081b905060ff603f8360061c1686015116810190508060081b905060ff603f831686015116810190508060e01b9050808452600484019350505061159e565b50600386066001811461163157600281146116415761164c565b613d3d60f01b600283035261164c565b603d60f81b60018303525b508484525050819450505050505b919050565b61167982826040518060200160405280600081525061198f565b5050565b61168682610db9565b6116c5576040517f08c379a00000000000000000000000000000000000000000000000000000000081526004016116bc9061286e565b60405180910390fd5b806006600084815260200190815260200160002090805190602001906116ec929190611d94565b505050565b6001816000016000828254019250508190555050565b606060405180602001604052806000815250905090565b606061172982610db9565b611768576040517f08c379a000000000000000000000000000000000000000000000000000000000815260040161175f906128ee565b60405180910390fd5b6000611772611707565b9050600081511161179257604051806020016040528060008152506117bd565b8061179c846119ea565b6040516020016117ad929190612558565b6040516020818303038152906040525b915050919050565b60008151905060006a636f6e736f6c652e6c6f679050602083016000808483855afa5050505050565b505050565b505050565b60006118198473ffffffffffffffffffffffffffffffffffffffff16611b97565b15611982578373ffffffffffffffffffffffffffffffffffffffff1663150b7a02611842610e25565b8786866040518563ffffffff1660e01b8152600401611864949392919061265e565b602060405180830381600087803b15801561187e57600080fd5b505af19250505080156118af57506040513d601f19601f820116820180604052508101906118ac91906120d8565b60015b611932573d80600081146118df576040519150601f19603f3d011682016040523d82523d6000602084013e6118e4565b606091505b5060008151141561192a576040517f08c379a00000000000000000000000000000000000000000000000000000000081526004016119219061274e565b60405180910390fd5b805181602001fd5b63150b7a0260e01b7bffffffffffffffffffffffffffffffffffffffffffffffffffffffff1916817bffffffffffffffffffffffffffffffffffffffffffffffffffffffff191614915050611987565b600190505b949350505050565b6119998383611bba565b6119a660008484846117f8565b6119e5576040517f08c379a00000000000000000000000000000000000000000000000000000000081526004016119dc9061274e565b60405180910390fd5b505050565b60606000821415611a32576040518060400160405280600181526020017f30000000000000000000000000000000000000000000000000000000000000008152509050611b92565b600082905060005b60008214611a64578080611a4d90612c45565b915050600a82611a5d9190612a6d565b9150611a3a565b60008167ffffffffffffffff811115611aa6577f4e487b7100000000000000000000000000000000000000000000000000000000600052604160045260246000fd5b6040519080825280601f01601f191660200182016040528015611ad85781602001600182028036833780820191505090505b5090505b60008514611b8b57600182611af19190612af8565b9150600a85611b009190612c8e565b6030611b0c9190612a17565b60f81b818381518110611b48577f4e487b7100000000000000000000000000000000000000000000000000000000600052603260045260246000fd5b60200101907effffffffffffffffffffffffffffffffffffffffffffffffffffffffffffff1916908160001a905350600a85611b849190612a6d565b9450611adc565b8093505050505b919050565b6000808273ffffffffffffffffffffffffffffffffffffffff163b119050919050565b600073ffffffffffffffffffffffffffffffffffffffff168273ffffffffffffffffffffffffffffffffffffffff161415611c2a576040517f08c379a0000000000000000000000000000000000000000000000000000000008152600401611c219061288e565b60405180910390fd5b611c3381610db9565b15611c73576040517f08c379a0000000000000000000000000000000000000000000000000000000008152600401611c6a9061278e565b60405180910390fd5b611c7f600083836117ee565b6001600360008473ffffffffffffffffffffffffffffffffffffffff1673ffffffffffffffffffffffffffffffffffffffff1681526020019081526020016000206000828254611ccf9190612a17565b92505081905550816002600083815260200190815260200160002060006101000a81548173ffffffffffffffffffffffffffffffffffffffff021916908373ffffffffffffffffffffffffffffffffffffffff160217905550808273ffffffffffffffffffffffffffffffffffffffff16600073ffffffffffffffffffffffffffffffffffffffff167fddf252ad1be2c89b69c2b068fc378daa952ba7f163c4a11628f55a4df523b3ef60405160405180910390a4611d90600083836117f3565b5050565b828054611da090612be2565b90600052602060002090601f016020900481019282611dc25760008555611e09565b82601f10611ddb57805160ff1916838001178555611e09565b82800160010185558215611e09579182015b82811115611e08578251825591602001919060010190611ded565b5b509050611e169190611e1a565b5090565b5b80821115611e33576000816000905550600101611e1b565b5090565b6000611e4a611e458461298e565b612969565b905082815260208101848484011115611e6257600080fd5b611e6d848285612ba0565b509392505050565b600081359050611e8481613349565b92915050565b600081359050611e9981613360565b92915050565b600081359050611eae81613377565b92915050565b600081519050611ec381613377565b92915050565b600082601f830112611eda57600080fd5b8135611eea848260208601611e37565b91505092915050565b600081359050611f028161338e565b92915050565b600060208284031215611f1a57600080fd5b6000611f2884828501611e75565b91505092915050565b60008060408385031215611f4457600080fd5b6000611f5285828601611e75565b9250506020611f6385828601611e75565b9150509250929050565b600080600060608486031215611f8257600080fd5b6000611f9086828701611e75565b9350506020611fa186828701611e75565b9250506040611fb286828701611ef3565b9150509250925092565b60008060008060808587031215611fd257600080fd5b6000611fe087828801611e75565b9450506020611ff187828801611e75565b935050604061200287828801611ef3565b925050606085013567ffffffffffffffff81111561201f57600080fd5b61202b87828801611ec9565b91505092959194509250565b6000806040838503121561204a57600080fd5b600061205885828601611e75565b925050602061206985828601611e8a565b9150509250929050565b6000806040838503121561208657600080fd5b600061209485828601611e75565b92505060206120a585828601611ef3565b9150509250929050565b6000602082840312156120c157600080fd5b60006120cf84828501611e9f565b91505092915050565b6000602082840312156120ea57600080fd5b60006120f884828501611eb4565b91505092915050565b60006020828403121561211357600080fd5b600061212184828501611ef3565b91505092915050565b61213381612b2c565b82525050565b61214281612b3e565b82525050565b6000612153826129d4565b61215d81856129ea565b935061216d818560208601612baf565b61217681612d7b565b840191505092915050565b600061218c826129df565b61219681856129fb565b93506121a6818560208601612baf565b6121af81612d7b565b840191505092915050565b60006121c5826129df565b6121cf8185612a0c565b93506121df818560208601612baf565b80840191505092915050565b600081546121f881612be2565b6122028186612a0c565b9450600182166000811461221d576001811461222e57612261565b60ff19831686528186019350612261565b612237856129bf565b60005b838110156122595781548189015260018201915060208101905061223a565b838801955050505b50505092915050565b60006122776032836129fb565b915061228282612d8c565b604082019050919050565b600061229a6025836129fb565b91506122a582612ddb565b604082019050919050565b60006122bd601c836129fb565b91506122c882612e2a565b602082019050919050565b60006122e06024836129fb565b91506122eb82612e53565b604082019050919050565b60006123036019836129fb565b915061230e82612ea2565b602082019050919050565b6000612326606383612a0c565b915061233182612ecb565b606382019050919050565b6000612349602c836129fb565b915061235482612f66565b604082019050919050565b600061236c600d83612a0c565b915061237782612fb5565b600d82019050919050565b600061238f6038836129fb565b915061239a82612fde565b604082019050919050565b60006123b2602a836129fb565b91506123bd8261302d565b604082019050919050565b60006123d56029836129fb565b91506123e08261307c565b604082019050919050565b60006123f8602e836129fb565b9150612403826130cb565b604082019050919050565b600061241b600283612a0c565b91506124268261311a565b600282019050919050565b600061243e6020836129fb565b915061244982613143565b602082019050919050565b60006124616031836129fb565b915061246c8261316c565b604082019050919050565b6000612484602c836129fb565b915061248f826131bb565b604082019050919050565b60006124a7602f836129fb565b91506124b28261320a565b604082019050919050565b60006124ca600a83612a0c565b91506124d582613259565b600a82019050919050565b60006124ed6021836129fb565b91506124f882613282565b604082019050919050565b6000612510601d83612a0c565b915061251b826132d1565b601d82019050919050565b60006125336031836129fb565b915061253e826132fa565b604082019050919050565b61255281612b96565b82525050565b600061256482856121ba565b915061257082846121ba565b91508190509392505050565b600061258882856121eb565b915061259482846121eb565b91508190509392505050565b60006125ac82866121eb565b91506125b882856121eb565b91506125c482846121eb565b91506125cf8261235f565b9150819050949350505050565b60006125e7826124bd565b91506125f382856121ba565b91506125fe82612319565b915061260a82846121ba565b91506126158261240e565b91508190509392505050565b600061262c82612503565b915061263882846121ba565b915081905092915050565b6000602082019050612658600083018461212a565b92915050565b6000608082019050612673600083018761212a565b612680602083018661212a565b61268d6040830185612549565b818103606083015261269f8184612148565b905095945050505050565b60006040820190506126bf600083018561212a565b6126cc6020830184612549565b9392505050565b60006020820190506126e86000830184612139565b92915050565b600060208201905081810360008301526127088184612181565b905092915050565b6000606082019050818103600083015261272a8186612181565b90506127396020830185612549565b612746604083018461212a565b949350505050565b600060208201905081810360008301526127678161226a565b9050919050565b600060208201905081810360008301526127878161228d565b9050919050565b600060208201905081810360008301526127a7816122b0565b9050919050565b600060208201905081810360008301526127c7816122d3565b9050919050565b600060208201905081810360008301526127e7816122f6565b9050919050565b600060208201905081810360008301526128078161233c565b9050919050565b6000602082019050818103600083015261282781612382565b9050919050565b60006020820190508181036000830152612847816123a5565b9050919050565b60006020820190508181036000830152612867816123c8565b9050919050565b60006020820190508181036000830152612887816123eb565b9050919050565b600060208201905081810360008301526128a781612431565b9050919050565b600060208201905081810360008301526128c781612454565b9050919050565b600060208201905081810360008301526128e781612477565b9050919050565b600060208201905081810360008301526129078161249a565b9050919050565b60006020820190508181036000830152612927816124e0565b9050919050565b6000602082019050818103600083015261294781612526565b9050919050565b60006020820190506129636000830184612549565b92915050565b6000612973612984565b905061297f8282612c14565b919050565b6000604051905090565b600067ffffffffffffffff8211156129a9576129a8612d4c565b5b6129b282612d7b565b9050602081019050919050565b60008190508160005260206000209050919050565b600081519050919050565b600081519050919050565b600082825260208201905092915050565b600082825260208201905092915050565b600081905092915050565b6000612a2282612b96565b9150612a2d83612b96565b9250827fffffffffffffffffffffffffffffffffffffffffffffffffffffffffffffffff03821115612a6257612a61612cbf565b5b828201905092915050565b6000612a7882612b96565b9150612a8383612b96565b925082612a9357612a92612cee565b5b828204905092915050565b6000612aa982612b96565b9150612ab483612b96565b9250817fffffffffffffffffffffffffffffffffffffffffffffffffffffffffffffffff0483118215151615612aed57612aec612cbf565b5b828202905092915050565b6000612b0382612b96565b9150612b0e83612b96565b925082821015612b2157612b20612cbf565b5b828203905092915050565b6000612b3782612b76565b9050919050565b60008115159050919050565b60007fffffffff0000000000000000000000000000000000000000000000000000000082169050919050565b600073ffffffffffffffffffffffffffffffffffffffff82169050919050565b6000819050919050565b82818337600083830152505050565b60005b83811015612bcd578082015181840152602081019050612bb2565b83811115612bdc576000848401525b50505050565b60006002820490506001821680612bfa57607f821691505b60208210811415612c0e57612c0d612d1d565b5b50919050565b612c1d82612d7b565b810181811067ffffffffffffffff82111715612c3c57612c3b612d4c565b5b80604052505050565b6000612c5082612b96565b91507fffffffffffffffffffffffffffffffffffffffffffffffffffffffffffffffff821415612c8357612c82612cbf565b5b600182019050919050565b6000612c9982612b96565b9150612ca483612b96565b925082612cb457612cb3612cee565b5b828206905092915050565b7f4e487b7100000000000000000000000000000000000000000000000000000000600052601160045260246000fd5b7f4e487b7100000000000000000000000000000000000000000000000000000000600052601260045260246000fd5b7f4e487b7100000000000000000000000000000000000000000000000000000000600052602260045260246000fd5b7f4e487b7100000000000000000000000000000000000000000000000000000000600052604160045260246000fd5b6000601f19601f8301169050919050565b7f4552433732313a207472616e7366657220746f206e6f6e20455243373231526560008201527f63656976657220696d706c656d656e7465720000000000000000000000000000602082015250565b7f4552433732313a207472616e736665722066726f6d20696e636f72726563742060008201527f6f776e6572000000000000000000000000000000000000000000000000000000602082015250565b7f4552433732313a20746f6b656e20616c7265616479206d696e74656400000000600082015250565b7f4552433732313a207472616e7366657220746f20746865207a65726f2061646460008201527f7265737300000000000000000000000000000000000000000000000000000000602082015250565b7f4552433732313a20617070726f766520746f2063616c6c657200000000000000600082015250565b7f222c20226465736372697074696f6e223a20224120686967686c79206163636c60008201527f61696d656420636f6c6c656374696f6e206f6620737175617265732e222c202260208201527f696d616765223a2022646174613a696d6167652f7376672b786d6c3b6261736560408201527f36342c0000000000000000000000000000000000000000000000000000000000606082015250565b7f4552433732313a206f70657261746f7220717565727920666f72206e6f6e657860008201527f697374656e7420746f6b656e0000000000000000000000000000000000000000602082015250565b7f3c2f746578743e3c2f7376673e00000000000000000000000000000000000000600082015250565b7f4552433732313a20617070726f76652063616c6c6572206973206e6f74206f7760008201527f6e6572206e6f7220617070726f76656420666f7220616c6c0000000000000000602082015250565b7f4552433732313a2062616c616e636520717565727920666f7220746865207a6560008201527f726f206164647265737300000000000000000000000000000000000000000000602082015250565b7f4552433732313a206f776e657220717565727920666f72206e6f6e657869737460008201527f656e7420746f6b656e0000000000000000000000000000000000000000000000602082015250565b7f45524337323155524953746f726167653a2055524920736574206f66206e6f6e60008201527f6578697374656e7420746f6b656e000000000000000000000000000000000000602082015250565b7f227d000000000000000000000000000000000000000000000000000000000000600082015250565b7f4552433732313a206d696e7420746f20746865207a65726f2061646472657373600082015250565b7f45524337323155524953746f726167653a2055524920717565727920666f722060008201527f6e6f6e6578697374656e7420746f6b656e000000000000000000000000000000602082015250565b7f4552433732313a20617070726f76656420717565727920666f72206e6f6e657860008201527f697374656e7420746f6b656e0000000000000000000000000000000000000000602082015250565b7f4552433732314d657461646174613a2055524920717565727920666f72206e6f60008201527f6e6578697374656e7420746f6b656e0000000000000000000000000000000000602082015250565b7f7b226e616d65223a202200000000000000000000000000000000000000000000600082015250565b7f4552433732313a20617070726f76616c20746f2063757272656e74206f776e6560008201527f7200000000000000000000000000000000000000000000000000000000000000602082015250565b7f646174613a6170706c69636174696f6e2f6a736f6e3b6261736536342c000000600082015250565b7f4552433732313a207472616e736665722063616c6c6572206973206e6f74206f60008201527f776e6572206e6f7220617070726f766564000000000000000000000000000000602082015250565b61335281612b2c565b811461335d57600080fd5b50565b61336981612b3e565b811461337457600080fd5b50565b61338081612b4a565b811461338b57600080fd5b50565b61339781612b96565b81146133a257600080fd5b5056fe4142434445464748494a4b4c4d4e4f505152535455565758595a6162636465666768696a6b6c6d6e6f707172737475767778797a303132333435363738392b2fa2646970667358221220171796169e512cc53c0a68b5bfd1467dcc6b7761b17f9ea51f0f065703aa4f2f64736f6c634300080100333c73766720786d6c6e733d27687474703a2f2f7777772e77332e6f72672f323030302f73766727207072657365727665417370656374526174696f3d27784d696e594d696e206d656574272076696577426f783d273020302033353020333530273e3c7374796c653e2e62617365207b2066696c6c3a2077686974653b20666f6e742d66616d696c793a2073657269663b20666f6e742d73697a653a20323470783b207d3c2f7374796c653e3c726563742077696474683d273130302527206865696768743d2731303025272066696c6c3d27626c61636b27202f3e3c7465787420783d273530252720793d273530252720636c6173733d27626173652720646f6d696e616e742d626173656c696e653d276d6964646c652720746578742d616e63686f723d276d6964646c65273e",
  "linkReferences": {},
  "deployedLinkReferences": {}
}